:100000000C946C000C94CE010C94F5010C941C0221
:100010000C947F020C94E2020C9494000C949400D3
:100020000C9494000C9494000C9494000C94940000
:100030000C9494000C9494000C9494000C949400F0
:100040000C94ED050C9494000C94F9040C942B057D
:100050000C9494000C9494000C9494000C949400D0
:100060000C9494000C94940000010203040506070C
:10007000000102030405000102030405000000085A
:10008000000201000003040700000000000000005F
:10009000010204081020408001020408102001021F
:1000A00004081020040404040404040402020202EC
:1000B00002020303030303030000000023002600E1
:1000C000290000000000250028002B00000000008F
:1000D000240027002A005B0511241FBECFEFD8E0C3
:1000E000DEBFCDBF11E0A0E0B1E0ECE6FEE002C073
:1000F00005900D92A634B107D9F722E0A6E4B1E04D
:1001000001C01D92A233B207E1F710E0CCE6D0E0C7
:1001100004C02197FE010E942E07CB36D107C9F7F4
:100120000E9489050C9434070C940000CF9384E05E
:100130000E94E306C82F0E9437066093480170931F
:10014000490180934A0190934B018091480190911D
:100150004901A0914A01B0914B01CC2331F1809328
:100160004C0190934D01A0934E01B0934F018091AB
:100170004C0190914D01A0914E01B0914F014091E1
:100180005001509151016091520170915301841BB3
:10019000950BA60BB70B4F97A105B10568F18091A0
:1001A00054018F5F8093540127C080935001909336
:1001B0005101A0935201B09353018091500190914D
:1001C0005101A0915201B091530140914C015091C5
:1001D0004D0160914E0170914F01841B950BA60B50
:1001E000B70B85369105A105B10530F0809154011A
:1001F0008093470110925401CF910895E82FEF7733
:1002000087FD05C08EEF8E0F823008F49AC08E2FC6
:1002100090E0FC01E057FF4F2491FC01EC55FF4FAB
:100220003491542F5D7F5130B9F4323031F4509114
:100230005D01522B50935D010FC0333031F450916A
:100240005A01522B50935A0107C0343029F450916F
:100250005701522B5093570141504230B8F432307D
:1002600031F440915C01422B40935C010FC033306C
:1002700031F440915901422B4093590107C0343069
:1002800029F440915601422B40935601FC01E85954
:10029000FF4FA4913230C1F4B0E0AA0FBB1FA658A3
:1002A000BE4F6D937C93ECEBF0E0A591B4918C91F3
:1002B00080935B018BE690E090938B0180938A01A1
:1002C00080916800816033C03330C1F4B0E0AA0F80
:1002D000BB1FA259BE4F6D937C93EEEBF0E0A5914E
:1002E000B4918C91809358018CE690E090938B01AF
:1002F00080938A0180916800826019C03430C9F40B
:10030000B0E0AA0FBB1FA25ABE4F6D937C93E0ECE6
:10031000F0E0A591B4918C91809355018DE690E029
:1003200090938B0180938A01809168008460809310
:100330006800A0918A01B0918B01EC912E2B2C9337
:1003400008959FB7F894E23099F470938701609311
:100350008601E898809169008C7F80936900809184
:100360006900482B40936900E09AE89A9FBF08957E
:100370007093890160938801E99880916900837F77
:10038000809369008091690024E0429FA0011124BC
:10039000482B40936900E19AE99AE8CF1F920F92A7
:1003A0000FB60F9211242F933F934F935F936F9348
:1003B0007F938F939F93AF93BF93EF93FF93E091BE
:1003C0008601F09187010995FF91EF91BF91AF915F
:1003D0009F918F917F916F915F914F913F912F915D
:1003E0000F900FBE0F901F9018951F920F920FB68F
:1003F0000F9211242F933F934F935F936F937F93AB
:100400008F939F93AF93BF93EF93FF93E0918801F6
:10041000F09189010995FF91EF91BF91AF919F9163
:100420008F917F916F915F914F913F912F910F909D
:100430000FBE0F901F9018951F920F920FB60F923C
:1004400011242F933F934F935F936F937F938F93D9
:100450009F93AF93BF93CF93EF93FF9323B1C0913B
:100460005B0180915D0190915C01322F3095932367
:100470008223892B90916B00C227C923C823209324
:100480005B01CC2351F1C0FF05C0E0917A01F091EE
:100490007B010995C1FF05C0E0917C01F0917D01D0
:1004A0000995C2FF05C0E0917E01F0917F01099599
:1004B000C3FF05C0E0918001F09181010995C4FF5F
:1004C00005C0E0918201F09183010995C5FF05C047
:1004D000E0918401F09185010995FF91EF91CF9111
:1004E000BF91AF919F918F917F916F915F914F914C
:1004F0003F912F910F900FBE0F901F9018951F9254
:100500000F920FB60F9211242F933F934F935F9347
:100510006F937F938F939F93AF93BF93CF93EF93FB
:10052000FF9326B1C091580180915A0190915901D1
:10053000322F309593238223892B90916C00C22710
:10054000C923C82320935801CC2351F1C0FF05C013
:10055000E0916E01F0916F010995C1FF05C0E09136
:100560007001F09171010995C2FF05C0E09172011F
:10057000F09173010995C3FF05C0E0917401F091FA
:1005800075010995C4FF05C0E0917601F0917701EE
:100590000995C5FF05C0E0917801F09179010995B1
:1005A000FF91EF91CF91BF91AF919F918F917F91EB
:1005B0006F915F914F913F912F910F900FBE0F90D0
:1005C0001F9018951F920F920FB60F9211242F9320
:1005D0003F934F935F936F937F938F939F93AF93CB
:1005E000BF93CF93EF93FF9329B1C09155018091B1
:1005F000570190915601322F309593238223892BF6
:1006000090916D00C227C923C82320935501CC23A4
:10061000C1F1C0FF05C0E0915E01F0915F01099555
:10062000C1FF05C0E0916001F09161010995C2FF31
:1006300005C0E0916201F09163010995C3FF05C017
:10064000E0916401F09165010995C4FF05C0E09156
:100650006601F09167010995C5FF05C0E091680149
:10066000F09169010995C6FF05C0E0916A01F0911A
:100670006B010995C7FF05C0E0916C01F0916D0118
:100680000995FF91EF91CF91BF91AF919F918F917C
:100690007F916F915F914F913F912F910F900FBE7E
:1006A0000F901F9018952FB7F894609148017091A2
:1006B000490180914A0190914B012FBF089526E096
:1006C00040E855E260E070E08CE891E00E9494041C
:1006D00062E084E00E94A70641E066E970E084E001
:1006E0000C94FE00CF92DF92EF92FF920E943706A9
:1006F0006B017C010E945303C61AD70AE80AF90A63
:1007000089EEC81683E0D806E104F10410F01092D7
:1007100047019091460180914701981759F18091C6
:1007200047018093460160E071E08CE891E00E940F
:10073000DB0580914701823069F028F4813081F433
:100740006BE071E00FC0833041F0843049F469E11F
:1007500071E008C061E171E005C064E171E002C0D0
:100760006DE171E08CE891E0FF90EF90DF90CF9029
:100770000C94DB05FF90EF90DF90CF900895FC0183
:10078000918D228D892F90E0805C9F4F821B910973
:100790008F7399270895FC01918D828D981731F000
:1007A000828DE80FF11D858D90E008958FEF9FEF0A
:1007B0000895FC01918D828D981761F0828DDF0183
:1007C000A80FB11D5D968C91928D9F5F9F73928F44
:1007D00090E008958FEF9FEF0895FC01538D448DB5
:1007E000252F30E0842F90E0821B930B541710F0DC
:1007F000CF9608950197089581E595E0892B49F0FA
:1008000080E090E0892B29F00E94510581110C9421
:1008100000000895FC01848DDF01A80FB11DA35ACB
:10082000BF4F2C91848D90E001968F739927848F10
:10083000A689B7892C93A089B1898C9180648C9307
:10084000938D848D981306C00288F389E02D8081F2
:100850008F7D80830895EF92FF920F931F93CF9324
:10086000DF93EC0181E0888F9B8D8C8D981305C000
:10087000E889F989808185FD24C0F62E0B8D10E072
:100880000F5F1F4F0F731127E02E8C8DE8120CC0E5
:100890000FB607FCFACFE889F989808185FFF5CF8B
:1008A000CE010E940A04F1CF8B8DFE01E80FF11DED
:1008B000E35AFF4FF0820B8FEA89FB8980818062C7
:1008C00007C0EE89FF896083E889F98980818064A7
:1008D000808381E090E0DF91CF911F910F91FF9095
:1008E000EF900895CF93DF93EC01888D8823C9F0B2
:1008F000EA89FB89808185FD05C0A889B9898C9129
:1009000086FD0FC00FB607FCF5CF808185FFF2CFC3
:10091000A889B9898C9185FFEDCFCE010E940A0488
:10092000E7CFDF91CF910895CF92DF92EF92FF92C0
:100930001F93CF93DF93EC016A017B01122FE889AB
:10094000F98982E080834115514E61057105B1F04E
:1009500060E079E08DE390E0A70196010E940C072A
:10096000DA01C9010197A109B109B695A795979533
:1009700087959C01211580E13807A8F0E889F9895D
:10098000108260E874E88EE190E0A70196010E9471
:100990000C07DA01C9010197A109B109B695A7951C
:1009A000979587959C01EC85FD853083EE85FF85C5
:1009B0002083188EEC89FD891083EA89FB89808168
:1009C00080618083EA89FB89808188608083EA89ED
:1009D000FB89808180688083EA89FB8980818F7DA3
:1009E0008083DF91CF911F91FF90EF90DF90CF90A8
:1009F00008951F920F920FB60F9211242F938F9389
:100A00009F93EF93FF93E0919C01F0919D01808172
:100A1000E091A201F091A30182FD12C0908180912A
:100A2000A5018F5F8F732091A601821751F0E0918D
:100A3000A501F0E0E457FE4F958F8093A50101C01A
:100A40008081FF91EF919F918F912F910F900FBE19
:100A50000F901F9018951F920F920FB60F921124AE
:100A60002F933F934F935F936F937F938F939F93B6
:100A7000AF93BF93EF93FF938CE891E00E940A0439
:100A8000FF91EF91BF91AF919F918F917F916F9166
:100A90005F914F913F912F910F900FBE0F901F903C
:100AA00018958CE891E00E94BF0321E0892B09F49E
:100AB00020E0822F0895ECE8F1E01382128288EEA4
:100AC00093E0A0E0B0E084839583A683B78389E2B6
:100AD00091E09183808385EC90E09587848784EC16
:100AE00090E09787868780EC90E0918B808B81ECFB
:100AF00090E0938B828B82EC90E0958B848B86ECDC
:100B000090E0978B868B118E128E138E148E089523
:100B100008950E9443060E9488050E945F03CCEF5F
:100B2000D3E00E9472032097E1F30E94FC03F9CF07
:100B3000CF92DF92EF92FF920F931F93CF93DF93A9
:100B40006C017A018B01C0E0D0E0CE15DF0581F0A9
:100B5000D8016D918D01D601ED91FC910190F0814C
:100B6000E02DC6010995892B11F02196EECF7E016B
:100B7000C701DF91CF911F910F91FF90EF90DF9010
:100B8000CF9008956115710579F0FB010190002067
:100B9000E9F73197AF01461B570BDC01ED91FC9152
:100BA0000280F381E02D099480E090E0089567E3EE
:100BB00071E00C94C2050F931F93CF93DF93EC0168
:100BC0000E94C2058C01CE010E94D705800F911FA3
:100BD000DF91CF911F910F9108951F920F920FB641
:100BE0000F9211242F933F938F939F93AF93BF93B3
:100BF00080912A0290912B02A0912C02B0912D029B
:100C00003091290223E0230F2D3720F40196A11DF6
:100C1000B11D05C026E8230F0296A11DB11D20932A
:100C2000290280932A0290932B02A0932C02B09366
:100C30002D0280912E0290912F02A0913002B0914E
:100C400031020196A11DB11D80932E0290932F02B7
:100C5000A0933002B0933102BF91AF919F918F91D9
:100C60003F912F910F900FBE0F901F9018952FB7A7
:100C7000F89460912A0270912B0280912C0290913D
:100C80002D022FBF0895789484B5826084BD84B509
:100C9000816084BD85B5826085BD85B5816085BD77
:100CA000EEE6F0E0808181608083E1E8F0E0108290
:100CB000808182608083808181608083E0E8F0E0D1
:100CC000808181608083E1EBF0E0808184608083BB
:100CD000E0EBF0E0808181608083EAE7F0E08081F2
:100CE0008460808380818260808380818160808352
:100CF0008081806880831092C1000895833081F0E4
:100D000028F4813099F08230A1F008958730A9F05D
:100D10008830B9F08430D1F4809180008F7D03C099
:100D2000809180008F7780938000089584B58F77BD
:100D300002C084B58F7D84BD08958091B0008F7707
:100D400003C08091B0008F7D8093B0000895CF9351
:100D5000DF9390E0FC01E057FF4F2491FC01EC553C
:100D6000FF4F8491882361F190E0880F991FFC0167
:100D7000E453FF4FC591D491FC01EE53FF4FA59171
:100D8000B491611109C09FB7F8948881209582239E
:100D90008883EC912E230BC0623061F49FB7F894E6
:100DA0008881322F309583238883EC912E2B2C93CE
:100DB0009FBF06C08FB7F894E8812E2B28838FBF82
:100DC000DF91CF910895CF93DF93282F30E0F90181
:100DD000E458FF4F8491F901E057FF4FD491F90196
:100DE000EC55FF4FC491CC2391F081110E947E06F7
:100DF000EC2FF0E0EE0FFF1FE854FF4FA591B491E8
:100E0000EC91ED2381E090E021F480E002C080E0ED
:100E100090E0DF91CF910895A1E21A2EAA1BBB1B8F
:100E2000FD010DC0AA1FBB1FEE1FFF1FA217B307B6
:100E3000E407F50720F0A21BB30BE40BF50B661FCC
:100E4000771F881F991F1A9469F760957095809590
:100E500090959B01AC01BD01CF010895EE0FFF1FDE
:0C0E60000590F491E02D0994F894FFCF68
:100E6C0046697265204D6F64653A0041726D656428
:100E7C0000476F0053746F7000456E6400556E6BC5
:100E8C006E6F776E00000000002B049805ED037266
:100E9C0004BF03D903CB030D0A006E616E00696EAB
:060EAC0066006F7666008F
:00000001FF
