:100000000C946C000C949A010C94C1010C94E801BE
:100010000C944B020C94AE020C9494000C9494003B
:100020000C9494000C9494000C9494000C94940000
:100030000C9494000C9494000C9494000C949400F0
:100040000C94D8060C9494000C9443050C947505FC
:100050000C9494000C9494000C9494000C949400D0
:100060000C9494000C94940000010203040506070C
:10007000000102030405000102030405000000085A
:10008000000201000003040700000000000000005F
:10009000010204081020408001020408102001021F
:1000A00004081020040404040404040402020202EC
:1000B00002020303030303030000000023002600E1
:1000C000290000000000250028002B00000000008F
:1000D000240027002A00A50511241FBECFEFD8E079
:1000E000DEBFCDBF11E0A0E0B1E0E2E4F0E102C08C
:1000F00005900D92A635B107D9F722E0A6E5B1E04B
:1001000001C01D92A736B207E1F710E0CCE6D0E0BF
:1001100004C02197FE010E941908CB36D107C9F708
:100120000E94D3050C941F080C94000084E00E94E8
:10013000CE07892B21F081E080935601089581E05C
:1001400080935701089585E00E94CE07892B21F006
:1001500081E080936301089581E0809364010895B4
:1001600086E00E94CE07892B21F081E08093700108
:10017000089581E080937101089587E00E94CE0781
:10018000892B21F081E080937D01089581E08093A7
:100190007E010895E82FEF7787FD05C08EEF8E0F63
:1001A000823008F49AC08E2F90E0FC01E057FF4F98
:1001B0002491FC01EC55FF4F3491542F5D7F513059
:1001C000B9F4323031F450919201522B5093920194
:1001D0000FC0333031F450918F01522B50938F0167
:1001E00007C0343029F450918C01522B50938C016C
:1001F00041504230B8F4323031F440919101422BF9
:10020000409391010FC0333031F440918E01422B65
:1002100040938E0107C0343029F440918B01422B6A
:1002200040938B01FC01E859FF4FA4913230C1F497
:10023000B0E0AA0FBB1FA155BE4F6D937C93ECEBB2
:10024000F0E0A591B4918C91809390018BE690E0C1
:100250009093C0018093BF0180916800816033C09A
:100260003330C1F4B0E0AA0FBB1FAD55BE4F6D9344
:100270007C93EEEBF0E0A591B4918C9180938D018D
:100280008CE690E09093C0018093BF01809168005C
:10029000826019C03430C9F4B0E0AA0FBB1FAD565C
:1002A000BE4F6D937C93E0ECF0E0A591B4918C91FE
:1002B00080938A018DE690E09093C0018093BF0106
:1002C00080916800846080936800A091BF01B09124
:1002D000C001EC912E2B2C9308959FB7F894E23037
:1002E00099F47093BC016093BB01E8988091690018
:1002F0008C7F8093690080916900482B409369004E
:10030000E09AE89A9FBF08957093BE016093BD0183
:10031000E99880916900837F8093690080916900EA
:1003200024E0429FA0011124482B40936900E19AE8
:10033000E99AE8CF1F920F920FB60F9211242F93D4
:100340003F934F935F936F937F938F939F93AF935D
:10035000BF93EF93FF93E091BB01F091BC0109952E
:10036000FF91EF91BF91AF919F918F917F916F918D
:100370005F914F913F912F910F900FBE0F901F9063
:1003800018951F920F920FB60F9211242F933F933F
:100390004F935F936F937F938F939F93AF93BF938D
:1003A000EF93FF93E091BD01F091BE010995FF919C
:1003B000EF91BF91AF919F918F917F916F915F91DD
:1003C0004F913F912F910F900FBE0F901F90189556
:1003D0001F920F920FB60F9211242F933F934F93BA
:1003E0005F936F937F938F939F93AF93BF93CF93BD
:1003F000EF93FF9323B1C09190018091920190916E
:100400009101322F309593238223892B90916B0099
:10041000C227C923C82320939001CC2351F1C0FFE8
:1004200005C0E091AF01F091B0010995C1FF05C091
:10043000E091B101F091B2010995C2FF05C0E091D0
:10044000B301F091B4010995C3FF05C0E091B50176
:10045000F091B6010995C4FF05C0E091B701F09194
:10046000B8010995C5FF05C0E091B901F091BA0145
:100470000995FF91EF91CF91BF91AF919F918F918E
:100480007F916F915F914F913F912F910F900FBE90
:100490000F901F9018951F920F920FB60F92112474
:1004A0002F933F934F935F936F937F938F939F937C
:1004B000AF93BF93CF93EF93FF9326B1C0918D017C
:1004C00080918F0190918E01322F3095932382235A
:1004D000892B90916C00C227C923C82320938D01DA
:1004E000CC2351F1C0FF05C0E091A301F091A4011C
:1004F0000995C1FF05C0E091A501F091A6010995FC
:10050000C2FF05C0E091A701F091A8010995C3FFC2
:1005100005C0E091A901F091AA010995C4FF05C0A9
:10052000E091AB01F091AC010995C5FF05C0E091E8
:10053000AD01F091AE010995FF91EF91CF91BF917F
:10054000AF919F918F917F916F915F914F913F916B
:100550002F910F900FBE0F901F9018951F920F9222
:100560000FB60F9211242F933F934F935F936F9386
:100570007F938F939F93AF93BF93CF93EF93FF930B
:1005800029B1C0918A0180918C0190918B01322F09
:10059000309593238223892B90916D00C227C92324
:1005A000C82320938A01CC23C1F1C0FF05C0E0918C
:1005B0009301F09194010995C1FF05C0E091950167
:1005C000F09196010995C2FF05C0E0919701F09165
:1005D00098010995C3FF05C0E0919901F0919A0136
:1005E0000995C4FF05C0E0919B01F0919C0109951C
:1005F000C5FF05C0E0919D01F0919E010995C6FFE0
:1006000005C0E0919F01F091A0010995C7FF05C0C9
:10061000E091A101F091A2010995FF91EF91CF9195
:10062000BF91AF919F918F917F916F915F914F910A
:100630003F912F910F900FBE0F901F90189526E0BD
:1006400040E855E260E070E081EC91E00E94DE0459
:1006500062E084E00E94920762E085E00E949207D7
:1006600062E086E00E94920762E087E00E949207C3
:1006700041E066E970E084E00E94CA0041E063EA7C
:1006800070E085E00E94CA0041E060EB70E086E027
:100690000E94CA0041E06DEB70E087E00C94CA0054
:1006A0008F929F92AF92BF92FF920F931F93CF931F
:1006B000DF93C6E5D1E000E010E08DE0F82E0E9467
:1006C0002207F09EF001F19EF00D1124EA5AFE4F30
:1006D00020812223D1F06A837B838C839D831082C7
:1006E0008E809F80A884B9849B01AC0128193909A8
:1006F0004A095B0949015A013FE183169104A104AB
:10070000B10418F02A852F5F2A87F09EF001F19E30
:10071000F00D1124EA5AFE4F21812223B9F06E8395
:100720007F838887998711828A809B80AC80BD8077
:10073000DC01CB0188199909AA09BB098536910505
:10074000A105B10518F08A858B871A868B859C8553
:100750000F5F1F4F981751F18C8760E071E081ECBB
:1007600091E00E9421064AE050E0B80181EC91E05E
:100770000E94D1068C85823069F028F4813081F4A2
:1007800060E171E00FC0833041F0843049F464E2ED
:1007900071E008C068E171E005C06DE171E002C080
:1007A0006AE271E081EC91E00E942E060E9422072D
:1007B0008A809B80AC80BD80DC01CB0188199909BF
:1007C000AA09BB09893E9340A105B10508F01B8623
:1007D0000E9422078E809F80A884B984DC01CB010F
:1007E00088199909AA09BB09893E9340A105B10559
:1007F00008F01B862D960430110509F060CFDF91BB
:10080000CF911F910F91FF90BF90AF909F908F90CD
:100810000895FC01918D228D892F90E0805C9F4F7F
:10082000821B91098F7399270895FC01918D828D08
:10083000981731F0828DE80FF11D858D90E00895B5
:100840008FEF9FEF0895FC01918D828D981761F0D5
:10085000828DDF01A80FB11D5D968C91928D9F5FF7
:100860009F73928F90E008958FEF9FEF0895FC01A2
:10087000538D448D252F30E0842F90E0821B930B05
:10088000541710F0CF960895019708958BE995E0DD
:10089000892B49F080E090E0892B29F00E949B058C
:1008A00081110C9400000895FC01848DDF01A80FD4
:1008B000B11DA35ABF4F2C91848D90E001968F7388
:1008C0009927848FA689B7892C93A089B1898C91A7
:1008D00080648C93938D848D981306C00288F3896D
:1008E000E02D80818F7D80830895EF92FF920F939A
:1008F0001F93CF93DF93EC0181E0888F9B8D8C8DCC
:10090000981305C0E889F989808185FD24C0F62EF9
:100910000B8D10E00F5F1F4F0F731127E02E8C8D92
:10092000E8120CC00FB607FCFACFE889F98980817C
:1009300085FFF5CFCE010E945404F1CF8B8DFE01CF
:10094000E80FF11DE35AFF4FF0820B8FEA89FB8914
:100950008081806207C0EE89FF896083E889F98918
:1009600080818064808381E090E0DF91CF911F914E
:100970000F91FF90EF900895CF93DF93EC01888D56
:100980008823C9F0EA89FB89808185FD05C0A88993
:10099000B9898C9186FD0FC00FB607FCF5CF808119
:1009A00085FFF2CFA889B9898C9185FFEDCFCE0163
:1009B0000E945404E7CFDF91CF910895CF92DF9248
:1009C000EF92FF921F93CF93DF93EC016A017B01BB
:1009D000122FE889F98982E080834115514E610523
:1009E0007105B1F060E079E08DE390E0A701960138
:1009F0000E94F707DA01C9010197A109B109B6956B
:100A0000A795979587959C01211580E13807A8F057
:100A1000E889F989108260E874E88EE190E0A70126
:100A200096010E94F707DA01C9010197A109B109EE
:100A3000B695A795979587959C01EC85FD853083A4
:100A4000EE85FF852083188EEC89FD891083EA8965
:100A5000FB89808180618083EA89FB89808188604D
:100A60008083EA89FB89808180688083EA89FB89A9
:100A700080818F7D8083DF91CF911F91FF90EF90D8
:100A8000DF90CF9008951F920F920FB60F9211240E
:100A90002F938F939F93EF93FF93E091D101F09168
:100AA000D2018081E091D701F091D80182FD12C07E
:100AB00090818091DA018F5F8F732091DB01821723
:100AC00051F0E091DA01F0E0EF53FE4F958F809303
:100AD000DA0101C08081FF91EF919F918F912F9159
:100AE0000F900FBE0F901F9018951F920F920FB688
:100AF0000F9211242F933F934F935F936F937F93A4
:100B00008F939F93AF93BF93EF93FF9381EC91E00B
:100B10000E945404FF91EF91BF91AF919F918F91EB
:100B20007F916F915F914F913F912F910F900FBEE9
:100B30000F901F90189581EC91E00E94090421E02C
:100B4000892B09F420E0822F0895E1ECF1E0138273
:100B5000128288EE93E0A0E0B0E084839583A683C0
:100B6000B78388E391E09183808385EC90E095875B
:100B7000848784EC90E09787868780EC90E0918B67
:100B8000808B81EC90E0938B828B82EC90E0958B54
:100B9000848B86EC90E0978B868B118E128E138E51
:100BA000148E089508950E942E070E94D2050E9477
:100BB0001F03C6E4D4E00E9450032097E1F30E9493
:100BC0004604F9CFCF92DF92EF92FF920F931F93DB
:100BD000CF93DF936C017A018B01C0E0D0E0CE159A
:100BE000DF0581F0D8016D918D01D601ED91FC9169
:100BF0000190F081E02DC6010995892B11F0219615
:100C0000EECF7E01C701DF91CF911F910F91FF9031
:100C1000EF90DF90CF9008956115710579F0FB0199
:100C200001900020E9F73197AF01461B570BDC011B
:100C3000ED91FC910280F381E02D099480E090E039
:100C400008950C940C06DC01ED91FC910190F0816B
:100C5000E02D099466E471E00C940C060F931F9349
:100C6000CF93DF93EC010E940C068C01CE010E9411
:100C70002A06800F911FDF91CF911F910F91089548
:100C80008F929F92AF92BF92EF92FF920F931F931A
:100C9000CF93DF93CDB7DEB7A1970FB6F894DEBF41
:100CA0000FBECDBF7C01FA01CB0119A2223008F49E
:100CB0002AE08E010F5D1F4F822E912CA12CB12CAA
:100CC000BF01A50194010E94F707F901CA01015073
:100CD00011096A3010F4605D01C0695CD8016C9341
:100CE000232B242B252B61F7B801C7010E940C068A
:100CF000A1960FB6F894DEBF0FBECDBFDF91CF91A6
:100D00001F910F91FF90EF90BF90AF909F908F90A9
:100D10000895CF92DF92EF92FF920F931F93CF939C
:100D2000DF932115310581F4DC01ED91FC910190F7
:100D3000F081E02D642FDF91CF911F910F91FF90F3
:100D4000EF90DF90CF9009942A30310501F577FFBD
:100D50001DC06A017B01EC016DE20E9423068C013B
:100D600044275527BA014C195D096E097F092AE00D
:100D7000CE010E944006800F911FDF91CF911F91FD
:100D80000F91FF90EF90DF90CF9008952AE0DF91D0
:100D9000CF911F910F91FF90EF90DF90CF900C9427
:100DA00040069A01AB01770F660B770B0C9489060E
:100DB0001F920F920FB60F9211242F933F938F9390
:100DC0009F93AF93BF9380915F0290916002A09137
:100DD0006102B091620230915E0223E0230F2D3751
:100DE00020F40196A11DB11D05C026E8230F02962F
:100DF000A11DB11D20935E0280935F02909360025B
:100E0000A0936102B09362028091630290916402A8
:100E1000A0916502B09166020196A11DB11D80935B
:100E2000630290936402A0936502B0936602BF913F
:100E3000AF919F918F913F912F910F900FBE0F9087
:100E40001F9018952FB7F89460915F02709160021F
:100E500080916102909162022FBF0895789484B5C9
:100E6000826084BD84B5816084BD85B5826085BDA6
:100E700085B5816085BDEEE6F0E08081816080838C
:100E8000E1E8F0E01082808182608083808181606F
:100E90008083E0E8F0E0808181608083E1EBF0E036
:100EA000808184608083E0EBF0E0808181608083DA
:100EB000EAE7F0E0808184608083808182608083C3
:100EC0008081816080838081806880831092C100EE
:100ED0000895833081F028F4813099F08230A1F0B8
:100EE00008958730A9F08830B9F08430D1F480912A
:100EF00080008F7D03C0809180008F778093800079
:100F0000089584B58F7702C084B58F7D84BD089520
:100F10008091B0008F7703C08091B0008F7D809367
:100F2000B0000895CF93DF9390E0FC01E057FF4FAE
:100F30002491FC01EC55FF4F8491882361F190E0EE
:100F4000880F991FFC01E453FF4FC591D491FC0118
:100F5000EE53FF4FA591B491611109C09FB7F8946A
:100F60008881209582238883EC912E230BC06230E8
:100F700061F49FB7F8948881322F3095832388835A
:100F8000EC912E2B2C939FBF06C08FB7F894E8816D
:100F90002E2B28838FBFDF91CF910895CF93DF93BE
:100FA000282F30E0F901E458FF4F8491F901E05710
:100FB000FF4FD491F901EC55FF4FC491CC2391F030
:100FC00081110E946907EC2FF0E0EE0FFF1FE8543B
:100FD000FF4FA591B491EC91ED2381E090E021F4D5
:100FE00080E002C080E090E0DF91CF910895A1E21F
:100FF0001A2EAA1BBB1BFD010DC0AA1FBB1FEE1F93
:10100000FF1FA217B307E407F50720F0A21BB30BDD
:10101000E40BF50B661F771F881F991F1A9469F759
:1010200060957095809590959B01AC01BD01CF01B5
:101030000895EE0FFF1F0590F491E02D0994F894A8
:02104000FFCFE0
:1010420046697265204D6F6465205079726F5F004A
:101052003A2041726D6564003A20476F003A20538E
:10106200746F70003A20456E64003A20556E6B6EC4
:101072006F776E00000000007504E2053704BC04BF
:101082000904230415040D0A006E616E00696E6680
:06109200006F766600000D
:00000001FF
