S01A00004469676974616C496E70757450756C6C75702E73726563BA
S11300000C946C000C94BF010C94E6010C940D024A
S11300100C9470020C94D3020C9494000C949400ED
S11300200C9494000C9494000C9494000C949400FC
S11300300C9494000C9494000C9494000C949400EC
S11300400C94CE050C9494000C94DA040C940C05D6
S11300500C9494000C9494000C9494000C949400CC
S11300600C9494000C949400000102030405060708
S11300700001020304050001020304050000000856
S1130080000201000003040700000000000000005B
S1130090010204081020408001020408102001021B
S11300A004081020040404040404040402020202E8
S11300B002020303030303030000000023002600DD
S11300C0290000000000250028002B00000000008B
S11300D0240027002A003C0511241FBECFEFD8E0DE
S11300E0DEBFCDBF11E0A0E0B1E0EEE2FEE002C071
S11300F005900D92A634B107D9F722E0A6E4B1E049
S113010001C01D92A733B207E1F710E0CCE6D0E0BE
S113011004C02197FE010E940F07CB36D107C9F70F
S11301200E946A050C9415070C9400000F931F930A
S113013084E00E94C406809359010E9418066093CB
S11301404C0170934D0180934E0190934F01209187
S11301505901222301F1609350017093510180935E
S11301605201909353010091540110915501209133
S1130170560130915701DC01CB01801B910BA20B7E
S1130180B30B4F97A105B10538F1809158018F5FEA
S11301908093580121C0609354017093550180935A
S11301A056019093570100915001109151012091F3
S11301B0520130915301DC01CB01801B910BA20B46
S11301C0B30B85369105A105B10530F08091580136
S11301D080934701109258011F910F910895E82FC1
S11301E0EF7787FD05C08EEF8E0F823008F49AC03A
S11301F08E2F90E0FC01E057FF4F2491FC01EC5559
S1130200FF4F3491542F5D7F5130B9F4323031F4C3
S113021050916201522B509362010FC0333031F47C
S113022050915F01522B50935F0107C0343029F481
S113023050915C01522B50935C0141504230B8F410
S1130240323031F440916101422B409361010FC07F
S1130250333031F440915E01422B40935E0107C07C
S1130260343029F440915B01422B40935B01FC0143
S1130270E859FF4FA4913230C1F4B0E0AA0FBB1F7C
S1130280A158BE4F6D937C93ECEBF0E0A591B49133
S11302908C91809360018BE690E090939001809321
S11302A08F0180916800816033C03330C1F4B0E0C5
S11302B0AA0FBB1FAD58BE4F6D937C93EEEBF0E0DD
S11302C0A591B4918C9180935D018CE690E090931C
S11302D0900180938F0180916800826019C034304E
S11302E0C9F4B0E0AA0FBB1FAD59BE4F6D937C9308
S11302F0E0ECF0E0A591B4918C9180935A018DE6E5
S113030090E09093900180938F01809168008460C5
S113031080936800A0918F01B0919001EC912E2BF5
S11303202C9308959FB7F894E23099F470938C015C
S113033060938B01E898809169008C7F80936900B9
S113034080916900482B40936900E09AE89A9FBF26
S1130350089570938E0160938D01E99880916900EE
S1130360837F809369008091690024E0429FA0010B
S11303701124482B40936900E19AE99AE8CF1F922F
S11303800F920FB60F9211242F933F934F935F93C5
S11303906F937F938F939F93AF93BF93EF93FF9349
S11303A0E0918B01F0918C010995FF91EF91BF9140
S11303B0AF919F918F917F916F915F914F913F91F9
S11303C02F910F900FBE0F901F9018951F920F92B0
S11303D00FB60F9211242F933F934F935F936F9314
S11303E07F938F939F93AF93BF93EF93FF93E0918A
S11303F08D01F0918E010995FF91EF91BF91AF911D
S11304009F918F917F916F915F914F913F912F9128
S11304100F900FBE0F901F9018951F920F920FB65A
S11304200F9211242F933F934F935F936F937F9376
S11304308F939F93AF93BF93CF93EF93FF9323B186
S1130440C09160018091620190916101322F3095D9
S113045093238223892B90916B00C227C923C8233D
S113046020936001CC2351F1C0FF05C0E0917F01CE
S1130470F09180010995C1FF05C0E0918101F091DF
S113048082010995C2FF05C0E0918301F0918401C6
S11304900995C3FF05C0E0918501F0918601099596
S11304A0C4FF05C0E0918701F09188010995C5FF5B
S11304B005C0E0918901F0918A010995FF91EF91BE
S11304C0CF91BF91AF919F918F917F916F915F91E8
S11304D04F913F912F910F900FBE0F901F90189541
S11304E01F920F920FB60F9211242F933F934F93A5
S11304F05F936F937F938F939F93AF93BF93CF93A8
S1130500EF93FF9326B1C0915D0180915F019091BB
S11305105E01322F309593238223892B90916C00B6
S1130520C227C923C82320935D01CC2351F1C0FF06
S113053005C0E0917301F09174010995C1FF05C0F4
S1130540E0917501F09176010995C2FF05C0E09133
S11305507701F09178010995C3FF05C0E091790115
S1130560F0917A010995C4FF05C0E0917B01F091F7
S11305707C010995C5FF05C0E0917D01F0917E01E4
S11305800995FF91EF91CF91BF91AF919F918F9179
S11305907F916F915F914F913F912F910F900FBE7B
S11305A00F901F9018951F920F920FB60F9211245F
S11305B02F933F934F935F936F937F938F939F9367
S11305C0AF93BF93CF93EF93FF9329B1C0915A0197
S11305D080915C0190915B01322F309593238223AB
S11305E0892B90916D00C227C923C82320935A01F7
S11305F0CC23C1F1C0FF05C0E0916301F091640117
S11306000995C1FF05C0E0916501F0916601099566
S1130610C2FF05C0E0916701F09168010995C3FF2D
S113062005C0E0916901F0916A010995C4FF05C014
S1130630E0916B01F0916C010995C5FF05C0E09153
S11306406D01F0916E010995C6FF05C0E0916F013F
S1130650F09170010995C7FF05C0E0917101F09117
S113066072010995FF91EF91CF91BF91AF919F9145
S11306708F917F916F915F914F913F912F910F9047
S11306800FBE0F901F90189526E040E855E260E0F9
S113069070E081E991E00E94750462E084E00E94C8
S11306A0880641E066E970E084E00C94EF009091E4
S11306B0460180914701981739F180914701809351
S11306C0460160E071E081E991E00E94BC058091FF
S11306D04701823069F028F4813081F46BE071E0E5
S11306E00FC0833041F0843049F469E171E008C0FF
S11306F061E171E005C064E171E002C06DE171E0A7
S113070081E991E00E94BC058091480190914901E2
S1130710A0914A01B0914B0140914C0150914D017F
S113072060914E0170914F01841B950BA60BB70B82
S1130730893E9340A105B10510F010924701089538
S1130740FC01918D228D892F90E0805C9F4F821B4C
S113075091098F7399270895FC01918D828D9817C3
S113076031F0828DE80FF11D858D90E008958FEFB3
S11307709FEF0895FC01918D828D981761F0828D11
S1130780DF01A80FB11D5D968C91928D9F5F9F73C1
S1130790928F90E008958FEF9FEF0895FC01538DA1
S11307A0448D252F30E0842F90E0821B930B541747
S11307B010F0CF9608950197089582E395E0892B70
S11307C049F080E090E0892B29F00E9432058111E4
S11307D00C9400000895FC01848DDF01A80FB11D65
S11307E0A35ABF4F2C91848D90E001968F73992763
S11307F0848FA689B7892C93A089B1898C91806450
S11308008C93938D848D981306C00288F389E02D10
S113081080818F7D80830895EF92FF920F931F93C1
S1130820CF93DF93EC0181E0888F9B8D8C8D98139F
S113083005C0E889F989808185FD24C0F62E0B8DD9
S113084010E00F5F1F4F0F731127E02E8C8DE812FD
S11308500CC00FB607FCFACFE889F989808185FFBF
S1130860F5CFCE010E94EB03F1CF8B8DFE01E80F93
S1130870F11DE35AFF4FF0820B8FEA89FB898081D7
S1130880806207C0EE89FF896083E889F9898081E5
S11308908064808381E090E0DF91CF911F910F917C
S11308A0FF90EF900895CF93DF93EC01888D882318
S11308B0C9F0EA89FB89808185FD05C0A889B989C9
S11308C08C9186FD0FC00FB607FCF5CF808185FFA4
S11308D0F2CFA889B9898C9185FFEDCFCE010E9412
S11308E0EB03E7CFDF91CF910895CF92DF92EF92A0
S11308F0FF921F93CF93DF93EC016A017B01122FC8
S1130900E889F98982E080834115514E61057105BA
S1130910B1F060E079E08DE390E0A70196010E94D8
S1130920ED06DA01C9010197A109B109B695A795A8
S1130930979587959C01211580E13807A8F0E889EF
S1130940F989108260E874E88EE190E0A7019601CD
S11309500E94ED06DA01C9010197A109B109B69512
S1130960A795979587959C01EC85FD853083EE8549
S1130970FF852083188EEC89FD891083EA89FB8921
S1130980808180618083EA89FB898081886080839B
S1130990EA89FB89808180688083EA89FB89808178
S11309A08F7D8083DF91CF911F91FF90EF90DF9037
S11309B0CF9008951F920F920FB60F9211242F9388
S11309C08F939F93EF93FF93E091A101F091A20184
S11309D08081E091A701F091A80182FD12C090816D
S11309E08091AA018F5F8F732091AB01821751F020
S11309F0E091AA01F0E0EF56FE4F958F8093AA0193
S1130A0001C08081FF91EF919F918F912F910F9061
S1130A100FBE0F901F9018951F920F920FB60F9252
S1130A2011242F933F934F935F936F937F938F93EF
S1130A309F93AF93BF93EF93FF9381E991E00E945B
S1130A40EB03FF91EF91BF91AF919F918F917F91B4
S1130A506F915F914F913F912F910F900FBE0F9027
S1130A601F90189581E991E00E94A00321E0892B51
S1130A7009F420E0822F0895E1E9F1E01382128263
S1130A8088EE93E0A0E0B0E084839583A683B783E7
S1130A9089E291E09183808385EC90E09587848757
S1130AA084EC90E09787868780EC90E0918B808B34
S1130AB081EC90E0938B828B82EC90E0958B848B1D
S1130AC086EC90E0978B868B118E128E138E148E8B
S1130AD0089508950E9424060E9469050E94440313
S1130AE0CDEDD3E00E9457032097E1F30E94DD038C
S1130AF0F9CFCF92DF92EF92FF920F931F93CF9390
S1130B00DF936C017A018B01C0E0D0E0CE15DF05E4
S1130B1081F0D8016D918D01D601ED91FC91019088
S1130B20F081E02DC6010995892B11F02196EECFB5
S1130B307E01C701DF91CF911F910F91FF90EF903C
S1130B40DF90CF9008956115710579F0FB01019054
S1130B500020E9F73197AF01461B570BDC01ED91FB
S1130B60FC910280F381E02D099480E090E00895E7
S1130B7067E371E00C94A3050F931F93CF93DF9366
S1130B80EC010E94A3058C01CE010E94B805800FE0
S1130B90911FDF91CF911F910F9108951F920F9292
S1130BA00FB60F9211242F933F938F939F93AF937C
S1130BB0BF9380912F0290913002A0913102B091A5
S1130BC0320230912E0223E0230F2D3720F40196B8
S1130BD0A11DB11D05C026E8230F0296A11DB11D5C
S1130BE020932E0280932F0290933002A09331021F
S1130BF0B09332028091330290913402A091350275
S1130C00B09136020196A11DB11D809333029093D9
S1130C103402A0933502B0933602BF91AF919F91F5
S1130C208F913F912F910F900FBE0F901F901895A9
S1130C302FB7F89460912F027091300280913102A5
S1130C40909132022FBF0895789484B5826084BD58
S1130C5084B5816084BD85B5826085BD85B58160BC
S1130C6085BDEEE6F0E0808181608083E1E8F0E01C
S1130C701082808182608083808181608083E0E84B
S1130C80F0E0808181608083E1EBF0E0808184602A
S1130C908083E0EBF0E0808181608083EAE7F0E02C
S1130CA08081846080838081826080838081816090
S1130CB080838081806880831092C100089583308E
S1130CC081F028F4813099F08230A1F008958730C2
S1130CD0A9F08830B9F08430D1F4809180008F7D00
S1130CE003C0809180008F7780938000089584B53D
S1130CF08F7702C084B58F7D84BD08958091B00044
S1130D008F7703C08091B0008F7D8093B0000895E9
S1130D10CF93DF9390E0FC01E057FF4F2491FC0157
S1130D20EC55FF4F8491882361F190E0880F991F5F
S1130D30FC01E453FF4FC591D491FC01EE53FF4FE6
S1130D40A591B491611109C09FB7F8948881209549
S1130D5082238883EC912E230BC0623061F49FB709
S1130D60F8948881322F309583238883EC912E2B3D
S1130D702C939FBF06C08FB7F894E8812E2B28834D
S1130D808FBFDF91CF910895CF93DF93282F30E069
S1130D90F901E458FF4F8491F901E057FF4FD491D2
S1130DA0F901EC55FF4FC491CC2391F081110E94BD
S1130DB05F06EC2FF0E0EE0FFF1FE854FF4FA59104
S1130DC0B491EC91ED2381E090E021F480E002C045
S1130DD080E090E0DF91CF910895A1E21A2EAA1B42
S1130DE0BB1BFD010DC0AA1FBB1FEE1FFF1FA217D7
S1130DF0B307E407F50720F0A21BB30BE40BF50BD4
S1130E00661F771F881F991F1A9469F7609570955C
S1130E10809590959B01AC01BD01CF010895EE0F23
S1110E20FF1F0590F491E02D0994F894FFCF84
S1130E2E46697265204D6F64653A0041726D656462
S1130E3E00476F0053746F7000456E6400556E6BFF
S1130E4E6E6F776E00000000000C047905CE03531C
S1130E5E04A003BA03AC030D0A006E616E00696E42
S1090E6E66006F766600C9
S9030000FC
